{
  "_format": "hh-sol-artifact-1",
  "contractName": "OpList",
  "sourceName": "contracts/TheOpList.sol",
  "abi": [
    {
      "inputs": [
        {
          "internalType": "address",
          "name": "creator",
          "type": "address"
        }
      ],
      "stateMutability": "nonpayable",
      "type": "constructor"
    },
    {
      "anonymous": false,
      "inputs": [
        {
          "indexed": false,
          "internalType": "address",
          "name": "creator",
          "type": "address"
        },
        {
          "indexed": false,
          "internalType": "string",
          "name": "op",
          "type": "string"
        },
        {
          "indexed": false,
          "internalType": "uint256",
          "name": "opTime",
          "type": "uint256"
        }
      ],
      "name": "OpCreated",
      "type": "event"
    },
    {
      "anonymous": false,
      "inputs": [
        {
          "indexed": false,
          "internalType": "address",
          "name": "OWNER",
          "type": "address"
        },
        {
          "indexed": false,
          "internalType": "string",
          "name": "op",
          "type": "string"
        },
        {
          "indexed": false,
          "internalType": "uint256",
          "name": "reOpTime",
          "type": "uint256"
        }
      ],
      "name": "ReOpCreated",
      "type": "event"
    },
    {
      "anonymous": false,
      "inputs": [
        {
          "indexed": false,
          "internalType": "address",
          "name": "user",
          "type": "address"
        },
        {
          "indexed": false,
          "internalType": "uint256",
          "name": "amount",
          "type": "uint256"
        }
      ],
      "name": "Rugged",
      "type": "event"
    },
    {
      "anonymous": false,
      "inputs": [
        {
          "indexed": false,
          "internalType": "address",
          "name": "tipper",
          "type": "address"
        },
        {
          "indexed": false,
          "internalType": "uint256",
          "name": "tipAmount",
          "type": "uint256"
        },
        {
          "indexed": false,
          "internalType": "bytes32",
          "name": "tip",
          "type": "bytes32"
        }
      ],
      "name": "TipReceived",
      "type": "event"
    },
    {
      "stateMutability": "payable",
      "type": "fallback"
    },
    {
      "inputs": [],
      "name": "OWNER",
      "outputs": [
        {
          "internalType": "address payable",
          "name": "",
          "type": "address"
        }
      ],
      "stateMutability": "view",
      "type": "function"
    },
    {
      "inputs": [],
      "name": "ReOp",
      "outputs": [
        {
          "internalType": "bytes",
          "name": "",
          "type": "bytes"
        }
      ],
      "stateMutability": "payable",
      "type": "function"
    },
    {
      "inputs": [],
      "name": "Rug",
      "outputs": [],
      "stateMutability": "nonpayable",
      "type": "function"
    },
    {
      "inputs": [],
      "name": "createdTime",
      "outputs": [
        {
          "internalType": "uint256",
          "name": "",
          "type": "uint256"
        }
      ],
      "stateMutability": "view",
      "type": "function"
    },
    {
      "inputs": [],
      "name": "lastPost",
      "outputs": [
        {
          "internalType": "uint256",
          "name": "id",
          "type": "uint256"
        },
        {
          "internalType": "string",
          "name": "opinion",
          "type": "string"
        },
        {
          "internalType": "uint256",
          "name": "opTime",
          "type": "uint256"
        }
      ],
      "stateMutability": "view",
      "type": "function"
    },
    {
      "inputs": [],
      "name": "opId",
      "outputs": [
        {
          "internalType": "uint256",
          "name": "",
          "type": "uint256"
        }
      ],
      "stateMutability": "view",
      "type": "function"
    },
    {
      "inputs": [
        {
          "internalType": "string",
          "name": "_op",
          "type": "string"
        }
      ],
      "name": "postOp",
      "outputs": [],
      "stateMutability": "nonpayable",
      "type": "function"
    },
    {
      "inputs": [
        {
          "internalType": "uint256",
          "name": "",
          "type": "uint256"
        }
      ],
      "name": "posts",
      "outputs": [
        {
          "internalType": "uint256",
          "name": "id",
          "type": "uint256"
        },
        {
          "internalType": "string",
          "name": "opinion",
          "type": "string"
        },
        {
          "internalType": "uint256",
          "name": "opTime",
          "type": "uint256"
        }
      ],
      "stateMutability": "view",
      "type": "function"
    },
    {
      "stateMutability": "payable",
      "type": "receive"
    }
  ],
  "bytecode": "0x60e06040523480156200001157600080fd5b5060405162000ea838038062000ea883398101604081905262000034916200021a565b6001600160a01b0381166080523360a0524260c081905260408051606081018252600080825282518084018452600b81526a12195b1b1bc815dbdc9b1960aa1b602082810191909152808401918252938301949094526001805480820182559152815160039091027fb10e2d527612073b26eecdfd717e6a320cf44b4afac2b0732d9fcbe2b7fa0cf681019182559351805192949193620000fd937fb10e2d527612073b26eecdfd717e6a320cf44b4afac2b0732d9fcbe2b7fa0cf79093019291019062000174565b506040918201516002919091015580516001600160a01b0383168152606060208201819052600b908201526a12195b1b1bc815dbdc9b1960aa1b6080820152428183015290517fcb5a99588d35988adde95948189cf64e8cc31fef415204e4c5433484ea57f6b69181900360a00190a15062000289565b82805462000182906200024c565b90600052602060002090601f016020900481019282620001a65760008555620001f1565b82601f10620001c157805160ff1916838001178555620001f1565b82800160010185558215620001f1579182015b82811115620001f1578251825591602001919060010190620001d4565b50620001ff92915062000203565b5090565b5b80821115620001ff576000815560010162000204565b6000602082840312156200022d57600080fd5b81516001600160a01b03811681146200024557600080fd5b9392505050565b600181811c908216806200026157607f821691505b602082108114156200028357634e487b7160e01b600052602260045260246000fd5b50919050565b60805160a05160c051610bbe620002ea60003960006101d70152600061038601526000818161013d0152818161045c015281816104b7015281816104f801528181610637015281816106770152818161070f01526107c90152610bbe6000f3fe60806040526004361061006f5760003560e01c80630b1e7f83146100de578063107c52d814610116578063117803e31461012b5780633acc94231461016c57806383b1dcc81461018c578063b0e5db9b146101a1578063b2f4bdb0146101c5578063ce91e9d0146101f9576100aa565b366100aa5760013411156100a857604051600080516020610b498339815191529061009f903390349042906108c7565b60405180910390a15b005b60013411156100a857600080516020610b4983398151915233346100cf3660006108e8565b60405161009f939291906108c7565b3480156100ea57600080fd5b506100fe6100f9366004610907565b61020e565b60405161010d9392919061097c565b60405180910390f35b61011e6102cc565b60405161010d91906109a5565b34801561013757600080fd5b5061015f7f000000000000000000000000000000000000000000000000000000000000000081565b60405161010d91906109bf565b34801561017857600080fd5b506100a86101873660046109d3565b6104f6565b34801561019857600080fd5b506100a8610675565b3480156101ad57600080fd5b506101b760005481565b60405190815260200161010d565b3480156101d157600080fd5b506101b77f000000000000000000000000000000000000000000000000000000000000000081565b34801561020557600080fd5b506100fe61081a565b6001818154811061021e57600080fd5b6000918252602090912060039091020180546001820180549193509061024390610a44565b80601f016020809104026020016040519081016040528092919081815260200182805461026f90610a44565b80156102bc5780601f10610291576101008083540402835291602001916102bc565b820191906000526020600020905b81548152906001019060200180831161029f57829003601f168201915b5050505050908060020154905083565b606060006001600054815481106102e5576102e5610a7f565b9060005260206000209060030201600101805461030190610a44565b80601f016020809104026020016040519081016040528092919081815260200182805461032d90610a44565b801561037a5780601f1061034f5761010080835404028352916020019161037a565b820191906000526020600020905b81548152906001019060200180831161035d57829003601f168201915b505050505090506000807f00000000000000000000000000000000000000000000000000000000000000006001600160a01b0316336040516024016103bf91906109bf565b60408051601f198184030181529181526020820180516001600160e01b0316630469552d60e21b179052516103f49190610a95565b600060405180830381855af49150503d806000811461042f576040519150601f19603f3d011682016040523d82523d6000602084013e610434565b606091505b5060019350915061044b9050565b60405180910390fd5b600080516020610b698339815191527f0000000000000000000000000000000000000000000000000000000000000000844260405161048c93929190610ab1565b60405180910390a17fc9218fb2abdc1c2719ee14d45870e9b7aff2f3c4584538a3f5ed44e25730b0ce7f000000000000000000000000000000000000000000000000000000000000000084426040516104e793929190610ab1565b60405180910390a19392505050565b7f00000000000000000000000000000000000000000000000000000000000000006001600160a01b0316331461057a5760405162461bcd60e51b815260206004820152602360248201527f506f737420796f7572206f70696e696f6e73206f6e20796f7572206f776e206c6044820152621a5cdd60ea1b6064820152608401610442565b60008054908061058983610ad5565b919050555060016040518060600160405280600054815260200184848080601f016020809104026020016040519081016040528093929190818152602001838380828437600092018290525093855250504260209384015250835460018181018655948252908290208351600390920201908155828201518051939491936106199392850192919091019061082e565b50604082015181600201555050600080516020610b698339815191527f00000000000000000000000000000000000000000000000000000000000000008383426040516106699493929190610afe565b60405180910390a15050565b7f00000000000000000000000000000000000000000000000000000000000000006001600160a01b031633146106fd5760405162461bcd60e51b815260206004820152602760248201527f596f75206d6179206e6f742077697468647261772066726f6d207468697320636044820152661bdb9d1c9858dd60ca1b6064820152608401610442565b60405147906000906001600160a01b037f0000000000000000000000000000000000000000000000000000000000000000169083908381818185875af1925050503d806000811461076a576040519150601f19603f3d011682016040523d82523d6000602084013e61076f565b606091505b50509050806107bb5760405162461bcd60e51b81526020600482015260186024820152772330b4b632b2103a37903bb4ba34323930bb9022ba3432b960411b6044820152606401610442565b604080516001600160a01b037f0000000000000000000000000000000000000000000000000000000000000000168152602081018490527f8d9d572fd0ee8fea68e64951cb2360e96feb0004ecf3ab2507617efbb86320789101610669565b600280546003805491929161024390610a44565b82805461083a90610a44565b90600052602060002090601f01602090048101928261085c57600085556108a2565b82601f1061087557805160ff19168380011785556108a2565b828001600101855582156108a2579182015b828111156108a2578251825591602001919060010190610887565b506108ae9291506108b2565b5090565b5b808211156108ae57600081556001016108b3565b6001600160a01b039390931683526020830191909152604082015260600190565b8035602083101561090157600019602084900360031b1b165b92915050565b60006020828403121561091957600080fd5b5035919050565b60005b8381101561093b578181015183820152602001610923565b8381111561094a576000848401525b50505050565b60008151808452610968816020860160208601610920565b601f01601f19169290920160200192915050565b8381526060602082015260006109956060830185610950565b9050826040830152949350505050565b6020815260006109b86020830184610950565b9392505050565b6001600160a01b0391909116815260200190565b600080602083850312156109e657600080fd5b82356001600160401b03808211156109fd57600080fd5b818501915085601f830112610a1157600080fd5b813581811115610a2057600080fd5b866020828501011115610a3257600080fd5b60209290920196919550909350505050565b600181811c90821680610a5857607f821691505b60208210811415610a7957634e487b7160e01b600052602260045260246000fd5b50919050565b634e487b7160e01b600052603260045260246000fd5b60008251610aa7818460208701610920565b9190910192915050565b6001600160a01b038416815260606020820181905260009061099590830185610950565b6000600019821415610af757634e487b7160e01b600052601160045260246000fd5b5060010190565b6001600160a01b038516815260606020820181905281018390528284608083013760006080848301015260006080601f19601f86011683010190508260408301529594505050505056fe1f9516514c60f2ad9ada2b287558b987a934788e6f689b387ee7bf5f0d1ec15ecb5a99588d35988adde95948189cf64e8cc31fef415204e4c5433484ea57f6b6a2646970667358221220cec8e1916de5e74e44911679e4936a175b0996b61bfff1d9079ea1cbbb9ba3d264736f6c63430008090033",
  "linkReferences": {},
  "deployedLinkReferences": {}
}